:100000000C9463000C94410E0C946E0E0C948B00B7
:100010000C948B000C948B000C948B000C948B0034
:100020000C948B000C948B000C948B000C948B0024
:100030000C948B000C94970A0C948B000C948B00FE
:100040000C949B0E0C948B000C9434110C94821124
:100050000C948B000C948B000C948B000C948B00F4
:100060000C945C0C0C948B00000000002400270012
:100070002A0000000000250028002B0000000000DE
:1000800023002600290004040404040404040202DA
:100090000202020203030303030301020408102007
:1000A0004080010204081020010204081020000012
:1000B0000007000201000003040600000000000029
:1000C0000000F80AEE1211241FBECFEFD8E0DEBF09
:1000D000CDBF12E0A0E0B1E0E4E9F0E302C005909A
:1000E0000D92A43BB107D9F714E0A4EBB2E001C034
:1000F0001D92AF3EB107E1F710E0C6ECD0E004C0BE
:100100002297FE010E944418C23CD107C9F70E9401
:1001100044130C9448180C9400000E94E30E2091A4
:10012000DE023091DF024091E0025091E102621B59
:10013000730B840B950B0E94BD1620E030E04AE75C
:1001400054E40E9424166093E2027093E3028093C9
:10015000E4029093E5020E94E30E2091280330917F
:10016000290340912A0350912B03621B730B840BCC
:10017000950B0E94BD1620E030E04AE754E40E944F
:10018000241660932C0370932D0380932E03909379
:100190002F0308950F931F93CF93DF93EA018901F3
:1001A0008C3471F08235D1F4809178020E94510F25
:1001B00080917A02BE010E94510F80917C020BC097
:1001C000809187020E94510F80918902BE010E9496
:1001D000510F80918B02B8010E94510FDF91CF9196
:1001E0001F910F910895FF920F931F93282FF62EC2
:1001F0000EEB13E0C801622F0E94BE0AC8016F2DEA
:100200000E94400BC8010E94830B1F910F91FF9029
:1002100008958DEC94E00E9475128093500385360A
:1002200009F472C0863674F4823339F1833324F4CE
:10023000813309F093C015C0833361F1843309F031
:100240008DC034C08F3609F455C0803724F487360A
:1002500009F084C043C08237A9F1843709F07EC019
:1002600063C08DEC94E060E071E00E94A81560919D
:100270006F026360809170020BC08DEC94E06EE0C1
:1002800071E00E94A81560916F0263608091710215
:10029000682343C08DEC94E06CE171E00E94A815E6
:1002A00060916F026C6080917202F2CF8DEC94E0ED
:1002B0006AE271E00E94A81560916F026C60809103
:1002C0007302E6CF8DEC94E068E371E00E94A8151C
:1002D00060916F02606380917602DACF8DEC94E0DA
:1002E0006FE371E00E94A81560916F0260638091D6
:1002F0007702CECF8DEC94E068E471E00E94A815FF
:1003000060916F02606309C08DEC94E063E571E079
:100310000E94A81560916F026F6060936F028091D8
:100320006E020E94F30008958DEC94E06EE571E09A
:100330000E94A8150E94E30E6093DE027093DF0214
:100340008093E0029093E1021092E7021092E6029D
:1003500081E090E09093E9028093E80208952F9263
:100360003F924F925F926F927F928F929F92AF9245
:10037000BF92CF92DF92EF92FF920F931F93DF9382
:10038000CF93CDB7DEB767970FB6F894DEBF0FBE39
:10039000CDBF8C3461F0823509F45AC08FEF8D8760
:1003A000CC24CA94DD24DA948C878B87A0C0E0909B
:1003B0002C03F0902D0300912E0310912F039091A8
:1003C00082029D8BA0918302AD87C0908402BCE421
:1003D000BC8BE6E0F3E0FB8BEA8B8EE093E0998B3D
:1003E000888B82E5882E83E0982EBAE34B2EB3E00B
:1003F0005B2EA0E4B3E0BA87A987E0E3F3E0F887D7
:10040000EF8382E393E09E838D83A6E32A2EA3E00D
:100410003A2EFCE36F2EF3E07F2EA2E4B3E0BC8320
:10042000AB83E6E4F3E0FA83E983E0E0AE2EE3E0B9
:10043000BE2E8EE593E09F8B8E8BACE4B3E0BF873E
:10044000AE8776EFD72EB9EFBC87EAEFEB874FC0C8
:10045000E090E202F090E3020091E4021091E502E4
:10046000F0916E02FD8BD0907102C090720282E515
:100470008C8BACEBB2E0BB8BAA8BE4ECF2E0F98B9B
:10048000E88B68E5862E63E0962EFAEFFD8750EF45
:10049000452E52E0552E86EF92E09A878987A6EE88
:1004A000B2E0B887AF83E8EEF2E0FE83ED834CEE76
:1004B000242E42E0342E32EF632E32E0732E88EF8A
:1004C00092E09C838B83ACEFB2E0BA83A98326EBE6
:1004D000A22E22E0B22EE8E6F3E0FF8BEE8B8AE458
:1004E00093E09F878E8796EF9C87A5EFAB87C80127
:1004F000B70120E030E040E050E40E9420161816DA
:1005000004F543C08D896D2D0E94F3008DEC94E0BD
:100510006DE671E00E94BE148DEC94E06C890E943F
:10052000A5138C896FEF70E041E450E020E030E0EB
:100530000E94CA00EE89FF89808191810196918392
:100540008083AE89BF898D919C9118161906D4F6C7
:10055000F2018081918101969183808306970CF44A
:10056000C7C3D3016D917D918D919C91E889F989E3
:1005700020813181428153810E94BC15D3016D934A
:100580007D938D939C931397B3C3C801B70120E06B
:1005900030E040E850E40E94201618160CF06AC0C3
:1005A000E3C025503040B901882777FD8095982F0A
:1005B0000E94BF169B01AC01F301608171818281B1
:1005C00093810E9424167B018C0120E030E044E8F6
:1005D00052E40E946F17181674F4C801B70120E0A6
:1005E00030E040EA52E40E942016882324F4E1E03F
:1005F000F0E0D40104C0E1E0F0E0AE85BF85ED930A
:10060000FC938DEC94E06C890E947D138DEC94E05A
:1006100061E871E00E94BE148DEC94E0B801A7017E
:1006200022E030E00E94A5158DEC94E06DE871E0C9
:100630000E94A815D2011D921C92F301A082B182E2
:10064000C282D3828D896D850E94F3008DEC94E087
:1006500060E971E00E94BE148DEC94E06C890E9408
:10066000A513AE89BF898D919C91119701968D93A9
:100670009C930FC0EE89FF893296FF8BEE8B0F2E75
:10068000F0E0AF2EF0E0BF2EF0E0CF2EF0E0DF2E56
:10069000F02DAE89BF898D919C91F201208131812D
:1006A000181619060CF07DCFC9010196918380833D
:1006B0000D972CF1D1016D917D918D919C91EA89DD
:1006C000FB8920813181428153810E94BC15D10177
:1006D0006D937D938D939C931397F301608171814A
:1006E00082819381A889B9892D913D914D915C9129
:1006F0000E94BC15F3016083718382839383AA896E
:10070000BB89ED90FD900D911C91C801B7012AE9BC
:1007100039E949E15FE30E946F1718160CF0E8C24F
:10072000C801B7012AE939E949E15EE30E942016D0
:1007300088230CF0DDC2E889F989608171818281AA
:10074000938120E030E040E852E40E9420168823A4
:100750000CF0CEC2D4011D921C9281E090E0EE8597
:10076000FF8591838083C4C2C801B70120E030E0D7
:1007700040EC50E40E94201618160CF0B5C0F5C0ED
:10078000D2016D917C916C507040882777FD8095E7
:10079000982F0E94BF167B018C01F101608171814D
:1007A00082819381A80197010E9424165B016C014C
:1007B000D3016D917D918D919C91A80197010E942B
:1007C00024167B018C01C601B5012FE832EC45E708
:1007D0005DE30E946F17181654F5C601B5012AE9AA
:1007E00039E949E15EE30E942016882304F5C80137
:1007F000B70120E030E044E852E40E946F17181679
:10080000B4F4C801B70120E030E040EA52E40E94AD
:100810002016882364F4EE85FF8580819181892BE1
:1008200031F4E1E0F0E0D401ED93FC9303C0D40196
:100830001D921C928DEC94E06C890E947D138DECCE
:1008400094E064EA71E00E94BE14F4016081718159
:100850008DEC94E04AE050E00E948C148DEC94E022
:100860006AEA71E00E94BE148DEC94E0B601A50125
:1008700022E030E00E94A5158DEC94E06BEB71E076
:100880000E94BE148DEC94E0B801A70122E030E094
:100890000E94A5158DEC94E067EC71E00E94A8150C
:1008A000D2011D921C9280E090E0A0E0B0E0F10146
:1008B00080839183A283B383F30180839183A28396
:1008C000B3838D896C850E94F3008DEC94E069EC14
:1008D00071E00E94A815AE89BF898D919C911197F6
:1008E00001968D939C9305C0EE89FF893496FF8B0A
:1008F000EE8BAE89BF898D919C91181619060CF06C
:100900003FCFE985FA85808191810196918380832B
:100910000A970CF4EDC1AB81BC816D917D918D91F5
:100920009C91EA89FB8920813181428153810E9417
:10093000BC15AB81BC816D937D938D939C93139774
:10094000E981FA816081718182819381A889B98965
:100950002D913D914D915C910E94BC15E981FA81E8
:100960006083718382839383C3C1C801B7012AE97D
:1009700039E949EC50E40E94201618160CF0B0C07A
:10098000C0C0A985BA856D917C9169507040882757
:1009900077FD8095982F0E94BF167B018C01EB811B
:1009A000FC816081718182819381A80197010E94FD
:1009B00024165B016C01A981BA816D917D918D91A5
:1009C0009C91A80197010E9424167B018C01C6010D
:1009D000B50120E030E040E45FE30E946F17181695
:1009E0000CF5C601B50128E431EE4AE75FE30E9449
:1009F00020168823BCF4C801B70120E030E040E0B5
:100A000050E00E946F1788236CF0C801B70120E006
:100A100030E040E850E40E94201688231CF4F401E2
:100A2000738262828DEC94E06C890E947D138DEC60
:100A300094E065ED71E00E94BE14D40112966D91B0
:100A40007C9113978DEC94E04AE050E00E948C1466
:100A50008DEC94E06AEA71E00E94BE148DEC94E0A3
:100A6000B601A50122E030E00E94A5158DEC94E0CE
:100A70006BEB71E00E94BE148DEC94E0B801A7010D
:100A800022E030E00E94A5158DEC94E067EC71E067
:100A90000E94A815E985FA851182108280E090E015
:100AA000A0E0B0E0EB81FC8180839183A283B383DB
:100AB000E981FA8180839183A283B3838D896B85D9
:100AC0000E94F3008DEC94E06BED71E00E94A8159C
:100AD000D2018D919C91119701968D939C9309C0A1
:100AE0004E885F88E6E0F0E04E0E5F1E91E0692ED2
:100AF000712CD2018D919C91181619060CF041CFE2
:100B0000F7C0C801B70120E030E040ED50E40E949A
:100B100020161816BCF42DC08D896FEF0E94F300CB
:100B20008DEC94E06C890E947D138DEC94E069EE6D
:100B300071E00E94A815F80180819181019691834E
:100B4000808304C00E891F89085F1F4FD8018D91D3
:100B50009C911816190604F7F50180819181813066
:100B6000910509F0C5C0D40115969C938E931497F6
:100B7000BFC0C801B70126E636E646ED50E40E9444
:100B8000201618162CF08D896C2D0E94F300B0C031
:100B9000C801B7012DEC3CEC4CED50E40E9420164E
:100BA00018160CF4A5C08DEC94E06C890E947D139E
:100BB0008DEC94E06AEF71E00E94BE1484E0E82EB0
:100BC000F12CE80CF91CF401648175818DEC94E042
:100BD0004AE050E00E949F148DEC94E00E9485133F
:100BE0008DEC94E06C890E947D138DEC94E060E0C4
:100BF00072E00E94BE146091B4027091B5028DEC57
:100C000094E04AE050E00E948C148DEC94E061E1A5
:100C100072E00E94BE1400E010E0F401E00FF11F4A
:100C2000608171818DEC94E04AE050E00E948C1468
:100C30008DEC94E064E172E00E94BE140E5F1F4FE1
:100C40000630110551F78DEC94E068E172E00E94E6
:100C5000A815D4018D919C9111970197B1F412962A
:100C60008D919C911397019781F4F7018081918177
:100C7000019759F48D89609177020E94F3008C8965
:100C800060E070E04AEF50E00AC08D896091760222
:100C90000E94F3008C896AEF70E040E050E020E0B1
:100CA00030E00E94CA0081E090E0AF81B8858D936A
:100CB0009C93ED81FE811182108280E090E0EE89AC
:100CC000FF89E80FF91F1182108202968A30910580
:100CD000B1F7D40111961C921E9213961C921E928B
:100CE0001297F70111821082AE85BF851D921C926A
:100CF00067960FB6F894DEBF0FBECDBFCF91DF91E0
:100D00001F910F91FF90EF90DF90CF90BF90AF9029
:100D10009F908F907F906F905F904F903F902F901B
:100D200008956F927F928F929F92AF92BF92CF92CF
:100D3000DF92EF92FF920F931F9380917E020E94A9
:100D40002F0F9093BB028093BA02AA2797FDA0951C
:100D5000BA2FBC01CD010E94BF1620E030EC4FE756
:100D600054E40E94241620E030E040E050E00E946D
:100D7000BC156093BC027093BD028093BE02909339
:100D8000BF028091800261E020E23EE440E050E05A
:100D90000E9497107B018C016093C0027093C10286
:100DA0008093C2029093C302A090D802B090D9025F
:100DB0006501CC0CDD1CCC0CDD1C88EC92E0C80E6F
:100DC000D91E6091DA027091DB028091DC02909171
:100DD000DD02F60120813181428153810E94BB15E1
:100DE0003B014C0160E271EA87E090E0A8019701C5
:100DF0000E940C18DA01C90164E070E00E94F91742
:100E0000882777FD8095982F0E94BF1620E030E05C
:100E10004CE752E40E94731720E030E040E752E4D0
:100E20000E9424169B01AC01F601608371838283CA
:100E30009383C401B3010E94BC153B014C01609334
:100E4000DA027093DB028093DC029093DD02089457
:100E5000A11CB11CB092D902A092D802F4E0AF1646
:100E6000B10424F01092D9021092D802C401B30147
:100E700020E030E040E85EE30E9473177B018C01C4
:100E800020E030E040E050E00E946F17181654F068
:100E9000C401B30120E030E040E85EEB0E9473172C
:100EA0007B018C01E092C402F092C5020093C6025D
:100EB0001093C70280918D020E942F0F909305031B
:100EC00080930403AA2797FDA095BA2FBC01CD01FA
:100ED0000E94BF1620E030EC4FE754E40E94241635
:100EE00020E030E040E050E00E94BC156093060333
:100EF00070930703809308039093090380918F02F6
:100F000061E020E23EE440E050E00E9497107B0167
:100F10008C0160930A0370930B0380930C039093EE
:100F20000D03A0902203B09023036501CC0CDD1CBF
:100F3000CC0CDD1C82E193E0C80ED91E6091240325
:100F4000709125038091260390912703F60120815B
:100F50003181428153810E94BB153B014C0160E20B
:100F600071EA87E090E0A80197010E940C18DA016D
:100F7000C90164E070E00E94F917882777FD809529
:100F8000982F0E94BF1620E030E04CE752E40E9408
:100F9000731720E030E040E752E40E9424169B01E2
:100FA000AC01F6016083718382839383C401B30132
:100FB0000E94BC153B014C016093240370932503F0
:100FC00080932603909327030894A11CB11CB09230
:100FD0002303A0922203F4E0AF16B10424F0109290
:100FE000230310922203C401B30120E030E040E863
:100FF0005EE30E9473177B018C0120E030E040E04B
:1010000050E00E946F17181654F0C401B30120E09D
:1010100030E040E85EEB0E9473177B018C01E092A8
:101020000E03F0920F0300931003109311038EEB45
:1010300093E060E270E041E050E00E94940B01E038
:1010400010E036C08EEB93E00E94D10A982F9F6B80
:10105000909374028F67809375021092B70210927A
:10106000B6029F3B21F41093B7020093B6028F3F64
:10107000D9F41092B9021092B8021092E7021092BD
:10108000E60282E56FEF70E04FEF50E02FEF30E0C7
:101090000E94CA0080916E026FEF0E94F3001093CD
:1010A000EB020093EA0204C01093B9020093B80265
:1010B0008EEB93E00E94C80A892B21F68EEB93E019
:1010C00061EA70E041E050E00E94940B01E010E022
:1010D00036C08EEB93E00E94D10A982F9F6B9093BD
:1010E00085028F678093860210920103109200039D
:1010F0009F3B21F410930103009300038F3FD9F429
:1011000010920303109202031092310310923003E5
:101110008CE46FEF70E04FEF50E02FEF30E00E9473
:10112000CA00809182026FEF0E94F3001093350392
:101130000093340304C010930303009302038EEB67
:1011400093E00E94C80A892B21F6809191020E94A7
:10115000441090934F0380934E03892B09F068C08D
:10116000E0900203F090030381E0E816F10401F53A
:101170000091B8021091B90201301105C9F48DEC4B
:1011800094E06AE172E00E94A8150E94E30E609369
:1011900028037093290380932A0390932B031092C2
:1011A00031031092300310933303009332030DC0C8
:1011B0000091B8021091B90201301105C9F48DEC0B
:1011C00094E06DE272E00E94A8150E94E30E609325
:1011D000DE027093DF028093E0029093E1021092AE
:1011E000E7021092E6021093E9020093E80220C0A1
:1011F00091E0E916F104E1F48DEC94E061E472E031
:101200000E94A8150E94E30E6F5F7F4F8F4F9F4F84
:10121000609328037093290380932A0390932B03F0
:101220001092310310923003F0923303E0923203B4
:101230001F910F91FF90EF90DF90CF90BF90AF90F4
:101240009F908F907F906F900895CF93DF930E942F
:101250008D000E9491064091BC025091BD026091A8
:10126000BE027091BF028DEC94E022E030E00E945B
:10127000A5158DEC94E064E172E00E94BE144091EB
:10128000C4025091C5026091C6027091C7028DECF4
:1012900094E022E030E00E94A5158DEC94E064E13A
:1012A00072E00E94BE146091B6027091B7028DEC9C
:1012B00094E04AE050E00E948C148DEC94E064E1EC
:1012C00072E00E94BE146091B8027091B9028DEC78
:1012D00094E04AE050E00E948C148DEC94E064E5C8
:1012E00072E00E94BE1460914E0370914F038DEC2A
:1012F00094E04AE050E00E948C148DEC94E06AE5A2
:1013000072E00E94BE144091060350910703609161
:101310000803709109038DEC94E022E030E00E9414
:10132000A5158DEC94E064E172E00E94BE1440913A
:101330000E0350910F0360911003709111038DEC17
:1013400094E022E030E00E94A5158DEC94E064E189
:1013500072E00E94BE1460910003709101038DEC55
:1013600094E04AE050E00E948C148DEC94E064E13B
:1013700072E00E94BE1460910203709103038DEC31
:1013800094E04AE050E00E949F148091E602909120
:10139000E702892B49F48091E8029091E9020197D4
:1013A00019F482E50E94AF018091300390913103DE
:1013B000892B49F48091320390913303019719F4FA
:1013C0008CE40E94AF018091B8029091B90201971C
:1013D00001F5C091EA02D091EB02C130D105C9F408
:1013E0000E94E30E6093DE027093DF028093E002BE
:1013F0009093E1021092E7021092E602D093E90284
:10140000C093E8021092EB021092EA0282E50E9479
:10141000AF018091020390910303019701F5C09100
:101420003403D0913503C130D105C9F40E94E30ED5
:10143000609328037093290380932A0390932B03CE
:101440001092310310923003D0933303C0933203D0
:1014500010923503109234038CE40E94AF018DEC9E
:1014600094E00E9444121816190614F40E9409010F
:10147000DF91CF91089580E00E942E0E81E080934D
:10148000510380E06BE37AE041E050E00E940B0EF4
:10149000089580E00E942C0F80917E0260E00E94FF
:1014A000B10F80918D0260E00E94B10F80918002A7
:1014B00060E00E94B10F80918F0260E00E94B10F46
:1014C0008091910260E00E94B10F8091780261E00A
:1014D0000E94B10F8091870261E00E94B10F80915C
:1014E0007A0261E00E94B10F8091890261E00E945E
:1014F000B10F80917C0261E00E94B10F80918B025C
:1015000061E00E94B10F8EEB93E00E94980B80E0A7
:101510006BE37AE041E050E00E940B0E8DEC94E02A
:1015200040E855E260E070E00E94BD1108951F920E
:101530000F920FB60F9211242F933F934F935F9307
:101540006F937F938F939F93AF93BF93EF93FF938B
:10155000E0917603F09177030995FF91EF91BF91A8
:10156000AF919F918F917F916F915F914F913F913B
:101570002F910F900FBE0F901F90189581E08093D0
:10158000BD0360939A031092BB031092BC030895AD
:101590002091990330E080919803281B3109C901FB
:1015A00008954091980380919903481718F02FEF00
:1015B0003FEF0AC0E42FF0E0E858FC4F8081282F6D
:1015C00030E04F5F40939803C9010895E09198037C
:1015D00080919903E81718F0EFEFFFEF06C0F0E0F5
:1015E000E858FC4F8081E82FF0E0CF01089508957E
:1015F0001092C1031092C00388EE93E0A0E0B0E027
:101600008093C2039093C303A093C403B093C50314
:1016100088E992E09093BF038093BE030895CF9230
:10162000DF92EF92FF920F931F93CF93DF937C0192
:101630006B018A018091BD038823A1F0C0E0D0E056
:101640000DC0D701ED91FC91D601AC0FBD1F0190EB
:10165000F081E02DC7016C9109952196C017D10743
:1016600080F304C0CB01642F0E94410CC801DF91BC
:10167000CF911F910F91FF90EF90DF90CF90089541
:10168000DF93CF930F92CDB7DEB7FC0169838091D2
:10169000BD038823C9F08091BC03803238F081E01B
:1016A00090E09383828320E030E015C08091BB03FB
:1016B000E82FF0E0E556FC4F998190838F5F80938F
:1016C000BB038093BC0305C0CE01019661E00E947C
:1016D000410C21E030E0C9010F90CF91DF910895D6
:1016E0000F93062F80919A036BE973E04091BC033E
:1016F00021E00E94EC0B1092BB031092BC031092ED
:10170000BD030F91089561E00E94700B089541326E
:1017100008F040E2862F68E773E00E94A30B109266
:10172000980380939903089521E00E94870B089500
:1017300010929803109299031092BB031092BC036D
:101740000E94ED0D0895382F413210F040E042C064
:101750008091CA038823E1F791E09093CA03209314
:10176000CC038FEF809337041092F20341504093E3
:10177000F3034F5F9093CB038091CB03330F832B05
:101780008093CB038091CD03813041F41092CD033F
:101790008091CB038093BB0085EC01C085EE8093E4
:1017A000BC008091CA038130E1F38091F203841779
:1017B00010F44091F20320E030E00AC0FB01E20F98
:1017C000F31FD901AE52BC4F8C9180832F5F3F4FE6
:1017D0002417A0F3842F08950F931F93582F122FCF
:1017E000413210F081E04AC08091CA038823E1F7BA
:1017F00082E08093CA030093CC038FEF8093370479
:101800001092F2034093F303A2EDB3E0FB0102C098
:1018100081918D938E2F861B8417D0F31092CB036A
:101820008091CB03550F852B8093CB038091CD0303
:10183000813041F41092CD038091CB038093BB00A3
:1018400085EC01C085EE8093BC00112321F08091CE
:10185000CA038230E1F3809137048F3F11F480E0B6
:101860000DC080913704803211F482E007C080916E
:101870003704803311F084E001C083E01F910F91A1
:101880000895482F613210F081E008958091CA03D5
:10189000843011F082E0089560931504A4EFB3E062
:1018A000842F9C01F90102C081918D938E2F841B9E
:1018B0008617D0F380E008951F920F920FB60F9213
:1018C00011242F933F934F935F936F937F938F9345
:1018D0009F93AF93BF93EF93FF938091B90090E0F4
:1018E000887F90708036910509F4F2C081369105A9
:1018F000CCF58832910509F47BC089329105B4F4A6
:101900008031910509F46FC0813191053CF4009755
:1019100009F447C1089709F04FC165C088319105A6
:1019200009F466C0809709F047C182C080349105F0
:1019300009F4A4C08134910544F48033910509F47D
:1019400082C0C89709F038C189C08035910509F473
:1019500089C08835910509F496C08834910509F04D
:101960002BC1AEC08839910509F413C1893991059D
:10197000ECF48837910509F4ABC0893791054CF434
:101980008836910509F4A4C08037910509F014C187
:101990009FC08838910509F4FCC08039910509F48D
:1019A0009DC08038910509F007C198C0803B910522
:1019B00009F4C6C0813B91054CF4803A910509F4C5
:1019C0009FC0883A910509F0F7C0BAC0803C9105E4
:1019D00009F4E3C0883C910509F4DFC0883B910518
:1019E00009F0EAC0C2C08091CB038093BB00CFC096
:1019F0009091F2038091F303981768F49091F203A9
:101A0000E92FF0E0EE52FC4F80818093BB009F5F96
:101A10009093F203BCC08091CC03882309F44BC09F
:101A200085ED8093BC008091BC0084FDFCCFC2C0DA
:101A300080E28093370485ED8093BC008091BC00E8
:101A400084FDFCCFB7C080E38093370485ED80939D
:101A5000BC008091BC0084FDFCCFACC088E38093C7
:101A600037049BC08091F2039091BB00E82FF0E017
:101A7000EE52FC4F90838F5F8093F2039091F203BC
:101A80008091F30382C08091F2039091BB00E82F14
:101A9000F0E0EE52FC4F90838F5F8093F2038091D1
:101AA000CC03882341F085ED8093BC008091BC007D
:101AB00084FDFCCF7FC081E08093CD0384EA6EC0BB
:101AC00085ED8093BC008091BC0084FDFCCF72C08A
:101AD00083E08093CA031092360459C08091360483
:101AE000803208F056C0809136049091BB00E82FF8
:101AF000F0E0EA5EFB4F90838F5F8093360447C02F
:101B000080913604803230F4E0913604F0E0EA5EF1
:101B1000FB4F108285ED8093BC008091BC0084FD5A
:101B2000FCCF1092CA0360913604E091D003F0918B
:101B3000D10386E194E070E00995109236042DC03F
:101B400084E08093CA031092140410921504E0916B
:101B5000CE03F091CF03099580911504882329F4D1
:101B600081E0809315041092F40390911404E92FFE
:101B7000F0E0EC50FC4F80818093BB009F5F90931E
:101B800014049091140480911504981710F485ECB6
:101B900001C085E88093BC000FC085EC8093BC0039
:101BA00009C01092370485ED8093BC008091BC0081
:101BB00084FDFCCF1092CA03FF91EF91BF91AF91CA
:101BC0009F918F917F916F915F914F913F912F9155
:101BD0000F900FBE0F901F9018951092CA0381E0CE
:101BE0008093CC031092CD0382E161E00E94F00F5C
:101BF00083E161E00E94F00FE9EBF0E080818E7FED
:101C0000808380818D7F808388E48093B80085E421
:101C10008093BC000895823000F5E82FF0E0EE0FCD
:101C2000FF1FE85CFB4F71836083882319F08130CC
:101C3000A1F408C0809169008C7F842B8093690097
:101C4000E89A089580916900440F551F440F551F6D
:101C5000837F842B80936900E99A0895823080F411
:101C6000882319F0813021F402C0E89801C0E99876
:101C7000E82FF0E0EE0FFF1FE85CFB4F11821082AF
:101C800008951F920F920FB60F9211242F933F9336
:101C90004F935F936F937F938F939F93AF93BF9374
:101CA000EF93FF938091380490913904892B29F0A8
:101CB000E0913804F09139040995FF91EF91BF91BB
:101CC000AF919F918F917F916F915F914F913F91D4
:101CD0002F910F900FBE0F901F9018951F920F928B
:101CE0000FB60F9211242F933F934F935F936F93EF
:101CF0007F938F939F93AF93BF93EF93FF938091C5
:101D00003A0490913B04892B29F0E0913A04F09138
:101D10003B040995FF91EF91BF91AF919F918F91F6
:101D20007F916F915F914F913F912F910F900FBED7
:101D30000F901F9018951F920F920FB60F921124BB
:101D40002F933F938F939F93AF93BF9380914004C2
:101D500090914104A0914204B09143043091440415
:101D60000196A11DB11D232F2D5F2D3720F02D577A
:101D70000196A11DB11D20934404809340049093CB
:101D80004104A0934204B093430480913C04909199
:101D90003D04A0913E04B0913F040196A11DB11DE8
:101DA00080933C0490933D04A0933E04B0933F0481
:101DB000BF91AF919F918F913F912F910F900FBE47
:101DC0000F901F9018958FB7F89420914004309190
:101DD000410440914204509143048FBFB901CA01AC
:101DE0000895789484B5826084BD84B5816084BD93
:101DF00085B5826085BD85B5816085BDEEE6F0E084
:101E0000808181608083E1E8F0E0108280818260DF
:101E10008083808181608083E0E8F0E08081816060
:101E20008083E1EBF0E0808184608083E0EBF0E090
:101E3000808181608083EAE7F0E080818460808334
:101E400080818260808380818160808380818068DE
:101E500080831092C1000895809393020895982F73
:101E60008E3008F09E509770809193028295880F73
:101E7000880F807C892B80937C0080917A0080641D
:101E800080937A0080917A0086FDFCCF20917800C3
:101E900040917900942F80E030E0282B392BC90144
:101EA00008951F93CF93DF93182FEB0161E00E94F9
:101EB000B10F209709F44AC0CF3FD10509F449C0BA
:101EC000E12FF0E0E255FF4F84918330C1F0843080
:101ED00028F4813051F08230B1F50CC0863019F110
:101EE000873049F1843079F514C084B5806884BDA9
:101EF000C7BD33C084B5806284BDC8BD2EC080918B
:101F00008000806880938000D0938900C09388000F
:101F100024C080918000806280938000D0938B00E9
:101F2000C0938A001AC08091B00080688093B0008E
:101F3000C093B30012C08091B00080628093B00063
:101F4000C093B4000AC0C038D1051CF4812F60E0F2
:101F500002C0812F61E00E94F00FDF91CF911F91AD
:101F60000895CF93DF93482F50E0CA0186569F4FC4
:101F7000FC0134914A575F4FFA018491882369F13B
:101F800090E0880F991FFC01E859FF4FA591B4918B
:101F9000FC01EE58FF4FC591D491662351F42FB741
:101FA000F8948C91932F909589238C938881892321
:101FB0000BC0623061F42FB7F8948C91932F9095F9
:101FC00089238C938881832B88832FBF06C09FB77A
:101FD000F8948C91832B8C939FBFDF91CF910895C0
:101FE000482F50E0CA0182559F4FFC012491CA013D
:101FF00086569F4FFC0194914A575F4FFA013491E6
:10200000332309F440C0222351F1233071F02430EE
:1020100028F42130A1F0223011F514C02630B1F09F
:102020002730C1F02430D9F404C0809180008F772C
:1020300003C0809180008F7D8093800010C084B5A4
:102040008F7702C084B58F7D84BD09C08091B000B8
:102050008F7703C08091B0008F7D8093B000E32F15
:10206000F0E0EE0FFF1FEE58FF4FA591B4912FB790
:10207000F894662321F48C919095892302C08C9169
:10208000892B8C932FBF0895682F70E0CB01825568
:102090009F4FFC012491CB0186569F4FFC01449138
:1020A0006A577F4FFB019491992319F420E030E0A7
:1020B0003CC0222351F1233071F0243028F4213028
:1020C000A1F0223011F514C02630B1F02730C1F054
:1020D0002430D9F404C0809180008F7703C08091B0
:1020E00080008F7D8093800010C084B58F7702C000
:1020F00084B58F7D84BD09C08091B0008F7703C007
:102100008091B0008F7D8093B000892F90E0880F80
:10211000991F84589F4FFC01A591B4918C9120E0A8
:1021200030E0842311F021E030E0C90108958F925E
:102130009F92AF92BF92CF92DF92EF92FF920F9356
:102140001F93CF93DF93A82FB0E0CD0186569F4F0A
:10215000FC018490AA57BF4FFD018491662311F4BE
:10216000992401C0982C6FEFA62E6FEFB62E6FEF5B
:10217000C62E6FE0D62EA222B322C422D522682F0B
:1021800070E0660F771F64587F4FEE24FF248701AD
:10219000FB01A591B4910BC0EA14FB040C051D05CD
:1021A00009F44EC00894E11CF11C011D111D8C9115
:1021B0008821891589F30CC0EA14FB040C051D0560
:1021C00009F43EC00894E11CF11C011D111D03C05F
:1021D000FB01A591B4918C918821891569F720E0C4
:1021E00030E040E050E0FB01C591D4910FC0DA012E
:1021F000C9018E0D9F1DA01FB11F8A159B05AC053F
:10220000BD05F1F02F5F3F4F4F4F5F4F8881882111
:10221000891569F3CA01B90125E130E040E050E0D9
:102220000E94DA179B01AC01205F3F4F4F4F5F4F79
:1022300084E056954795379527958A95D1F704C040
:1022400020E030E040E050E0B901CA01DF91CF91D9
:102250001F910F91FF90EF90DF90CF90BF90AF90C4
:102260009F908F90089508951F920F920FB60F922E
:1022700011242F933F934F938F939F93EF93FF934B
:102280008091C00082FD1DC04091C6002091850450
:10229000309186042F5F3F4F2F73307080918704F9
:1022A000909188042817390771F0E0918504F09126
:1022B0008604EB5BFB4F40833093860420938504B8
:1022C00002C08091C600FF91EF919F918F914F9135
:1022D0003F912F910F900FBE0F901F901895E09196
:1022E000D904F091DA04E05CFF4F81919191208153
:1022F0003181821B930B8F739070892B11F00E9498
:10230000331108951F920F920FB60F9211242F933D
:102310003F938F939F93EF93FF932091C904309144
:10232000CA048091CB049091CC042817390731F46A
:102330008091C1008F7D8093C10014C0E091CB04D7
:10234000F091CC04E757FB4F20818091CB04909112
:10235000CC0401968F7390709093CC048093CB043F
:102360002093C600FF91EF919F918F913F912F9104
:102370000F900FBE0F901F901895AF92BF92DF92F3
:10238000EF92FF920F931F93CF93DF93EC017A01AB
:102390008B01DD24403081EE580780E0680780E043
:1023A000780711F0DD24D39491E0A92EB12CEC89AB
:1023B000FD89DD2069F0C50108A002C0880F991FC2
:1023C0000A94E2F7808360E079E08DE390E005C055
:1023D000108260E874E88EE190E0A80197010E9405
:1023E0000C18215030404040504056954795379545
:1023F000279580E12030380720F0DD2011F0DD2422
:10240000D6CFE889F9893083EA89FB89208319A22C
:10241000EE89FF89408121E030E0C9010C8C02C0C7
:10242000880F991F0A94E2F7482B4083EE89FF89B1
:102430004081C9010D8C02C0880F991F0A94E2F7F0
:10244000482B4083EE89FF894081C9010E8C02C070
:10245000880F991F0A94E2F7482B4083EE89FF8981
:1024600080810F8C02C0220F331F0A94E2F720955F
:1024700028232083DF91CF911F910F91FF90EF9040
:10248000DF90BF90AF900895DC011C96ED91FC9118
:102490001D97E05CFF4F2191319180819181281B34
:1024A000390B2F733070C9010895DC011C96ED9132
:1024B000FC911D97E05CFF4F20813181E054F0409A
:1024C000DF01AE5BBF4F8D919C91119728173907A3
:1024D00019F42FEF3FEF07C08D919C91E80FF91F82
:1024E0008081282F30E0C9010895DC011C96ED9110
:1024F000FC911D97E05CFF4F20813181E054F0405A
:10250000DF01AE5BBF4F8D919C9111972817390762
:1025100019F42FEF3FEF10C08D919C911197E80FA8
:10252000F91F20818D919C91119701968F73907066
:1025300011969C938E9330E0C9010895DC01919629
:102540008C919197882339F05496ED91FC91559791
:10255000808186FFF9CF91961C920895CF93DF93E7
:10256000EC01EE85FF85E05CFF4F20813181E05476
:10257000F0402F5F3F4F2F733070DF01AE5BBF4FD6
:102580008D919C91119728173907D1F3E05CFF4F8B
:1025900080819181E054F040E80FF91F6083EE855F
:1025A000FF85E05CFF4F31832083EE89FF89208126
:1025B00081E090E00F8C02C0880F991F0A94E2F727
:1025C000282B208381E089A3EC89FD8980818064A8
:1025D000808381E090E0DF91CF9108951092D00444
:1025E0001092CF0488EE93E0A0E0B0E08093D10495
:1025F0009093D204A093D304B093D40488EA92E0D9
:102600009093CE048093CD0485E494E09093DA0413
:102610008093D90489E894E09093DC048093DB04F0
:1026200085EC90E09093DE048093DD0484EC90E0F0
:102630009093E0048093DF0480EC90E09093E204B8
:102640008093E10481EC90E09093E4048093E304B0
:1026500082EC90E09093E6048093E50486EC90E0B1
:102660009093E8048093E70484E08093E90483E096
:102670008093EA0487E08093EB0485E08093EC0488
:1026800081E08093ED040895CF93DF930E94F10ED3
:102690000E94490ACFE6D1E10E9425092097E1F383
:1026A0000E946F11F9CFCF92DF92EF92FF920F93BA
:1026B0001F93CF93DF937C016B018A01C0E0D0E0D0
:1026C0000FC0D6016D916D01D701ED91FC91019084
:1026D000F081E02DC7010995C80FD91F01501040A6
:1026E0000115110571F7CE01DF91CF911F910F9167
:1026F000FF90EF90DF90CF900895DC01ED91FC9179
:102700000190F081E02D09950895EF92FF920F93CB
:102710001F938C01DC01ED91FC910190F081E02D83
:102720006DE009957C01D801ED91FC910190F0815B
:10273000E02DC8016AE009959C012E0D3F1DC901DD
:102740001F910F91FF90EF900895EF92FF920F93DA
:102750001F937C01DC01ED91FC910190F081E02D53
:1027600009958C01C7010E948513080F191FC80124
:102770001F910F91FF90EF900895CF93DF93EC019D
:102780006115710519F420E030E00FC0DB010D90F8
:102790000020E9F71197A61BB70BE881F9810280A9
:1027A000F381E02DAD0109959C01C901DF91CF9125
:1027B00008954F925F927F928F929F92AF92BF92B5
:1027C000CF92DF92EF92FF920F931F93DF93CF93FD
:1027D000CDB7DEB7A1970FB6F894DEBF0FBECDBF61
:1027E0002C01742ECB01223008F42AE019A231E228
:1027F000C32ED12CCC0EDD1E822E9924AA24BB24FC
:10280000672D752FA50194010E940C1879018A018A
:10281000C801B701A50194010E94DA17472D461B94
:102820000894C108D1084A3014F4405D01C0495CE5
:10283000F6014083E114F1040105110521F07E2C1D
:102840005F2DC801DDCFC201B6010E94BD13A19664
:102850000FB6F894DEBF0FBECDBFCF91DF911F91B1
:102860000F91FF90EF90DF90CF90BF90AF909F902F
:102870008F907F905F904F900895DC012115310576
:1028800041F4ED91FC910190F081E02D642F0995C8
:1028900008950E94D9130895CF92DF92EF92FF928C
:1028A0000F931F93CF93DF93EC016A017B012115F6
:1028B000310541F4E881F9810190F081E02D642F28
:1028C00009951FC02A303105D1F477FF17C0E88180
:1028D000F9810190F081E02D6DE209958C0144278A
:1028E0005527BA014C195D096E097F09CE012AE00E
:1028F0000E94D9139801280F391F04C02AE00E94B2
:10290000D9139C01C901DF91CF911F910F91FF90C5
:10291000EF90DF90CF900895EF92FF920F931F9367
:102920007B019A010027F7FC0095102FB801A70141
:102930000E944C141F910F91FF90EF900895CF9239
:10294000DF92EF92FF920F931F936C017B019A012C
:102950000027F7FC0095102FB801A7010E944C1426
:102960008C01C6010E948513080F191FC8011F9111
:102970000F91FF90EF90DF90CF9008950E94BD13CC
:1029800008957F928F929F92AF92BF92CF92DF92E3
:10299000EF92FF920F931F93CF93DF934C017A0135
:1029A0008B01722ECB01BA01A80197010E94D617A4
:1029B000882321F0C40160E672E021C0C0E0D0E0CD
:1029C00057016801E894D7F8C601B5012FEF3FEF32
:1029D0004FE75FE70E94D617882351F4C601B5017F
:1029E0002FEF3FEF4FE75FE70E942016181614F015
:1029F000C1E0D0E0219739F0C40164E672E00E94A2
:102A0000BD13EC0193C0C801B7012FEF3FEF4FE7B3
:102A10005FE40E946F17181654F0C801B7012FEF3A
:102A20003FEF4FE75FEC0E942016882324F4C40197
:102A300068E672E0E4CFC801B70120E030E040E092
:102A400050E00E94201687FD03C0C0E0D0E00EC019
:102A5000D401ED91FC910190F081E02DC4016DE273
:102A60000995EC0117FB109517F9109520E030E05F
:102A700040E05FE3DD240BC0CA01B90120E030E093
:102A800040E251E40E9424169B01AC01D394D71478
:102A900098F3C801B7010E94BC155B016C010E944C
:102AA00091167B018C01C401B801A7012AE030E036
:102AB0000E943D14C80FD91F772039F0C4016CE67D
:102AC00072E00E94BD13C80FD91FC801B7010E9450
:102AD000BD169B01AC01C601B5010E94BB1524C007
:102AE00020E030E040E251E40E9473177B018C014A
:102AF0000E948C165B016C01CC24B7FCC094DC2CCA
:102B0000C401B601A5012AE030E00E944C14C80FB0
:102B1000D91FC601B5010E94BF169B01AC01C801B7
:102B2000B7010E94BB157A947720D1F6CE01DF91D0
:102B3000CF911F910F91FF90EF90DF90CF90BF90BA
:102B4000AF909F908F907F9008950E94C114089538
:102B5000EF92FF920F931F937C010E94BD138C0193
:102B6000C7010E948513080F191FC8011F910F91FB
:102B7000FF90EF9008955058BB27AA270ED075C13B
:102B800066D130F06BD120F031F49F3F11F41EF488
:102B90005BC10EF4E095E7FB51C1E92F77D180F3DB
:102BA000BA17620773078407950718F071F49EF54A
:102BB0008FC10EF4E0950B2EBA2FA02D0B01B90199
:102BC00090010C01CA01A0011124FF27591B99F0A3
:102BD000593F50F4503E68F11A16F040A22F232FAF
:102BE000342F4427585FF3CF469537952795A795FF
:102BF000F0405395C9F77EF41F16BA0B620B730BA6
:102C0000840BBAF09150A1F0FF0FBB1F661F771F16
:102C1000881FC2F70EC0BA0F621F731F841F48F4CB
:102C2000879577956795B795F7959E3F08F0B3CF51
:102C30009395880F08F09927EE0F9795879508953B
:102C4000D9D008F481E008950CD00FC107D140F02D
:102C5000FED030F021F45F3F19F0F0C0511139C1BE
:102C6000F3C014D198F39923C9F35523B1F3951BFD
:102C7000550BBB27AA2762177307840738F09F5F9D
:102C80005F4F220F331F441FAA1FA9F333D00E2E0C
:102C90003AF0E0E830D091505040E695001CCAF779
:102CA00029D0FE2F27D0660F771F881FBB1F26173E
:102CB00037074807AB07B0E809F0BB0B802DBF0111
:102CC000FF2793585F4F2AF09E3F510568F0B6C02A
:102CD00000C15F3FECF3983EDCF3869577956795EE
:102CE000B795F7959F5FC9F7880F911D96958795C2
:102CF00097F90895E1E0660F771F881FBB1F6217E1
:102D000073078407BA0720F0621B730B840BBA0B9E
:102D1000EE1F88F7E095089504D06894B111D9C0EA
:102D20000895BCD088F09F5790F0B92F9927B751DC
:102D3000A0F0D1F0660F771F881F991F1AF0BA957F
:102D4000C9F712C0B13081F0C3D0B1E00895C0C05E
:102D5000672F782F8827B85F39F0B93FCCF3869575
:102D600077956795B395D9F73EF4909580957095D2
:102D700061957F4F8F4F9F4F0895E89409C097FB4F
:102D80003EF490958095709561957F4F8F4F9F4F42
:102D90009923A9F0F92F96E9BB279395F695879586
:102DA00077956795B795F111F8CFFAF4BB0F11F449
:102DB00060FF1BC06F5F7F4F8F4F9F4F16C08823F0
:102DC00011F096E911C0772321F09EE8872F762F26
:102DD00005C0662371F096E8862F70E060E02AF067
:102DE0009A95660F771F881FDAF7880F9695879553
:102DF00097F90895990F0008550FAA0BE0E8FEEF28
:102E000016161706E807F907C0F012161306E407AE
:102E1000F50798F0621B730B840B950B39F40A26A7
:102E200061F0232B242B252B21F408950A2609F485
:102E3000A140A6958FEF811D811D089597F99F6789
:102E400080E870E060E008959FEF80EC0895002432
:102E50000A941616170618060906089500240A94FF
:102E600012161306140605060895092E0394000C85
:102E700011F4882352F0BB0F40F4BF2B11F460FF14
:102E800004C06F5F7F4F8F4F9F4F089557FD90583D
:102E9000440F551F59F05F3F71F04795880F97FB1E
:102EA000991F61F09F3F79F08795089512161306D8
:102EB0001406551FF2CF4695F1DF08C01616170607
:102EC0001806991FF1CF869571056105089408953C
:102ED000E894BB2766277727CB0197F908958ADF07
:102EE00008F48FEF08950BD0C0CFB1DF28F0B6DF24
:102EF00018F0952309F0A2CFA7CF1124EACFC6DF9F
:102F0000A0F3959FD1F3950F50E0551F629FF001FC
:102F1000729FBB27F00DB11D639FAA27F00DB11D55
:102F2000AA1F649F6627B00DA11D661F829F2227DE
:102F3000B00DA11D621F739FB00DA11D621F839F65
:102F4000A00D611D221F749F3327A00D611D231F3B
:102F5000849F600D211D822F762F6A2F11249F5789
:102F600050408AF0E1F088234AF0EE0FFF1FBB1FAC
:102F7000661F771F881F91505040A9F79E3F51054B
:102F800070F05CCFA6CF5F3FECF3983EDCF3869504
:102F900077956795B795F795E7959F5FC1F7FE2BF6
:102FA000880F911D9695879597F9089523DF880BD3
:102FB000990B0895629FD001739FF001829FE00DED
:102FC000F11D649FE00DF11D929FF00D839FF00DA8
:102FD000749FF00D659FF00D9927729FB00DE11D54
:102FE000F91F639FB00DE11DF91FBD01CF01112431
:102FF000089597FB092E07260AD077FD04D02ED01E
:1030000006D000201AF4709561957F4F0895F6F769
:10301000909581959F4F0895A1E21A2EAA1BBB1B84
:10302000FD010DC0AA1FBB1FEE1FFF1FA217B30794
:10303000E407F50720F0A21BB30BE40BF50B661FAA
:10304000771F881F991F1A9469F76095709580956E
:1030500090959B01AC01BD01CF010895AA1BBB1B3C
:1030600051E107C0AA1FBB1FA617B70710F0A61B88
:10307000B70B881F991F5A95A9F780959095BC01A9
:10308000CD010895EE0FFF1F0590F491E02D0994F6
:04309000F894FFCFE2
:103094006D6F746F7220312E2044697231006D6F30
:1030A400746F7220312E2044697232006D6F746F18
:1030B4007220322E2044697231006D6F746F722059
:1030C400322E204469723200526564204F6E0047EC
:1030D4007265656E204F6E004C6967687473204F8B
:1030E4006666004D6F746F7273204F666600546598
:1030F4007374696E6720626567696E73000A4E4F68
:10310400524D414C204F5045524154494F4E20316D
:103114000054312043572052504D3A20003B2000A8
:103124000A4E4F524D414C204F5045524154494F45
:103134004E2032005431203A2000207C20637572E6
:1031440072656E74417667203D20002C2072706D8C
:10315400417667203D20003B000A5354414C4C20EB
:1031640054455354005432203A2000200A535749FE
:103174005443482054455354002054455354204349
:103184004F4D504C455445200A005433203A2000FA
:1031940020504153532F4641494C20554E49542009
:1031A400003A2000202C20000A000A426F74682094
:1031B400576865656C20466F756E6421000A526914
:1031C40067687420576865656C20466F756E642166
:1031D400000A4C65667420576865656C20466F75F7
:1031E4006E642100202C202020002020202C200090
:1031F4006E616E00696E66006F7666002E0020FFB9
:10320400FEFDFBF7BF7FEFDF0300050006000F00A4
:103214000E00A1FDF7BF7F09000A000B001100108A
:103224000004000100000000400B0F0BC80AD10A83
:10323400E60AF70A00000000AE1253134412751296
:0432440055129E126F
:00000001FF
